:020000040800F2
:1000000000100020ED2C0008792C00087B2C000843
:1000100000000000000000000000000000000000E0
:100020000000000000000000000000007D2C00081F
:1000300000000000000000007F2C0008812C000858
:100040003D2D0008000000003D2D00083D2D00085A
:100050003D2D00083D2D00083D2D00083D2D0008D8
:10006000000000003D2D00083D2D00083D2D00083A
:100070003D2D00083D2D00083D2D0008000000002A
:100080003D2D000800000000000000003D2D00088C
:10009000000000003D2D00083D2D00083D2D00080A
:1000A000000000003D2D0008000000003D2D00086C
:1000B0000000000000000000000000000000000040
:1000C00010B5064C2378002B07D1054B002B02D02E
:1000D000044800E000BF0123237010BD040000208D
:1000E000000000009C2D0008044B10B5002B03D02D
:1000F0000349044800E000BF10BDC04600000000F6
:10010000080000209C2D000802B4714649084900EF
:10011000095C49008E4402BC7047C0460022430877
:100120008B4274D303098B425FD3030A8B4244D3BF
:10013000030B8B4228D3030C8B420DD3FF22090201
:1001400012BA030C8B4202D31212090265D0030BC0
:100150008B4219D300E0090AC30B8B4201D3CB03B6
:10016000C01A5241830B8B4201D38B03C01A5241F8
:10017000430B8B4201D34B03C01A5241030B8B42FA
:1001800001D30B03C01A5241C30A8B4201D3CB02E5
:10019000C01A5241830A8B4201D38B02C01A5241CA
:1001A000430A8B4201D34B02C01A5241030A8B42CD
:1001B00001D30B02C01A5241CDD2C3098B4201D3E5
:1001C000CB01C01A524183098B4201D38B01C01A63
:1001D000524143098B4201D34B01C01A52410309DA
:1001E0008B4201D30B01C01A5241C3088B4201D389
:1001F000CB00C01A524183088B4201D38B00C01A36
:10020000524143088B4201D34B00C01A5241411A5C
:1002100000D20146524110467047FFE701B5002069
:1002200000F0F0F802BDC0460029F7D076E770472D
:1002300003460B437FD4002243088B4274D3030947
:100240008B425FD3030A8B4244D3030B8B4228D3E8
:10025000030C8B420DD3FF22090212BA030C8B420E
:1002600002D31212090265D0030B8B4219D300E0AE
:10027000090AC30B8B4201D3CB03C01A5241830B33
:100280008B4201D38B03C01A5241430B8B4201D3E3
:100290004B03C01A5241030B8B4201D30B03C01A0C
:1002A0005241C30A8B4201D3CB02C01A5241830A86
:1002B0008B4201D38B02C01A5241430A8B4201D3B5
:1002C0004B02C01A5241030A8B4201D30B02C01ADF
:1002D0005241CDD2C3098B4201D3CB01C01A524146
:1002E00083098B4201D38B01C01A524143098B42CF
:1002F00001D34B01C01A524103098B4201D30B01B8
:10030000C01A5241C3088B4201D3CB00C01A5241DC
:1003100083088B4201D38B00C01A524143088B42A1
:1003200001D34B00C01A5241411A00D2014652413A
:10033000104670475DE0CA0F00D04942031000D359
:100340004042534000229C4603098B422DD3030AAE
:100350008B4212D3FC22890112BA030A8B420CD3BE
:10036000890192118B4208D3890192118B4204D3E7
:1003700089013AD0921100E08909C3098B4201D367
:10038000CB01C01A524183098B4201D38B01C01AA1
:10039000524143098B4201D34B01C01A5241030918
:1003A0008B4201D30B01C01A5241C3088B4201D3C7
:1003B000CB00C01A524183088B4201D38B00C01A74
:1003C0005241D9D243088B4201D34B00C01A52414B
:1003D000411A00D20146634652415B10104601D3D8
:1003E0004042002B00D54942704763465B1000D362
:1003F000404201B5002000F005F802BD0029F8D008
:1004000016E770477047C0468446101C62468C460B
:10041000191C634600E0C0461FB500F045FD0028EA
:1004200001D40021C8421FBD10B500F09FFC40421E
:10043000013010BD10B500F037FD002801DB0020B1
:1004400010BD012010BDC04610B500F02DFD0028E4
:1004500001DD002010BD012010BDC04610B500F028
:10046000BFFC002801DC002010BD012010BDC046EB
:1004700010B500F0B5FC002801DA002010BD012005
:1004800010BDC046F0B557464E46DE464546E0B57F
:1004900044024300C60F83B00F1C640A1B0EB24611
:1004A00053D0FF2B27D08022E400D20414437F22B4
:1004B000524290469844002399469B467D0278001C
:1004C000FB0F6D0A000E009324D0FF2846D0802336
:1004D0000021ED00DB041D437F384746381A4F46A4
:1004E0000F43BF00B9463300009A874F53404A4636
:1004F000BA5801939746002C4ED108239946F733FA
:100500009846FD3B9B467D027800FB0F6D0A000E6E
:100510000093DAD1002D26D1002001213300009A6A
:100520007A4F53404246101A4A460A439200BA583C
:100530001D009746009B2C009A468B465B46022B7B
:1005400031D15346FF21002438E0002C17D1042379
:1005500099460023984601339B46AFE7FF20002DC4
:100560000BD10221DAE7280000F052FD431F9D4025
:1005700076235B42181A0021AFE70321ADE7200084
:1005800000F046FD431F9C4076235B421B1A9846B1
:10059000002399469B4691E70C239946F3339846EE
:1005A000FC3B9B468AE7032B00D1A5E05546012B77
:1005B00000D081E00123002100242B406402C90502
:1005C000600ADB070843184303B03CBC90469946D9
:1005D000A246AB46F0BD80240023E403FF21EDE7F3
:1005E000FF210024EAE70123591A1B2966DD019A3D
:1005F000134000210024E1E78023DB031C4238D0B4
:100600001D4251D01C436402640A3300FF21D5E728
:1006100063016C01A3423BD21B2600210138012556
:100620001F0049005B00002F01DB9C4201D81B1B0F
:100630002943013E002EF3D11C00631E9C410C4354
:1006400001007F310029CEDD630704D00F23234052
:10065000042B00D00434230103D501002C4B80313E
:100660001C40FE290DDD0123019AFF2113400024C7
:10067000A4E78023DB031C436402640A3300FF21E8
:100680009CE70123019AA401640AC9B2134095E7CB
:100690001B1B1A260121C2E7009B8B469A460024A9
:1006A0004CE76302E5D500258024E4032C43640273
:1006B000640A009BFF2181E70195C1E72300202008
:1006C000CB40411A8C40611E8C411C43630704D00F
:1006D0000F232340042B00D00434630105D50123EC
:1006E000019A01211340002468E70123019AA40123
:1006F000640A1340002161E78023DB031C4364028A
:10070000640A5346FF2159E7D42D0008142E00082F
:10071000FFFFFFF7F8B557464E464546DE46E0B5C3
:100720004702460088467F0A360EC40F002E47D087
:10073000FF2E24D0FB008027FF041F43002399468F
:100740009A467F3E43465D025800DB0F6D0A000E5D
:10075000984643D0FF283BD0EB0080250022ED04D3
:100760001D437F383618731C41469B464B466140FB
:1007700013430F2B64D875489B00C3589F46002F26
:1007800042D108239946063BFF269A46DAE74146BE
:10079000022A28D0032A00D1CEE0012A00D0ACE002
:1007A000114000200022CCB24002D205400AE407EA
:1007B000104320433CBC90469946A246AB46F8BD48
:1007C000002F15D104239946033B00269A46B9E72A
:1007D000FF200222002DC5D00322C3E7002D19D12E
:1007E00000200122BEE70124FF220C400020DBE7AD
:1007F000380000F00DFC7626431F9F400023764210
:10080000361A99469A469DE70C239946093BFF26DE
:100810009A4697E7280000F0FBFB431F9D40762394
:100820005B42181A00229DE780200024C003FF22AB
:10083000BAE73D005246ABE73D0021005246A7E72C
:100840003B0C9C462A04120C2B0C14006046654697
:100850003F043F0C7C4342435D437B43270C9B1882
:10086000FF18BA4203D980235B029C4665442404E6
:100870003A04240C121993015C1EA3413F0C920E02
:100880007D191A43AD0115432B0104D501235E46A2
:100890006A081D40154332007F32002A25DD6B07B0
:1008A00004D00F232B40042B00D004352B0103D59B
:1008B0003200274B80321D40FE2A94DC0124A8011F
:1008C000400AD2B20C406FE78020C003074207D035
:1008D000054205D128434002400A4446FF2263E70F
:1008E00038434002400AFF225EE70124A31A1B2B73
:1008F00005DD0C400022002056E75E46CBE72A00CB
:100900002020DA40C31A9D402B005D1EAB411343EB
:100910005A0704D00F221A40042A00D004335A0187
:1009200004D5012401220C4000203DE701249B0155
:10093000580A0C40002237E780200124C0032843D6
:100940004002400A0C40FF222EE7C046542E000809
:10095000FFFFFFF7F0B54F46D64646464400C0B508
:10096000C20F47024802400A844666467B0A480096
:10097000C90F9A46240E1500DB00000E8946F600CA
:10098000FF2800D18FE001214F464F4039009142AE
:1009900066D0221A002A00DC9DE000283DD1002EFE
:1009A00000D18BE0511E002900D0B5E001249B1B33
:1009B0005A0144D59B019F09380000F029FB0538F6
:1009C0008740844200DD96E0041B3A002020013479
:1009D000E240041BA7403B005F1EBB4100241343C1
:1009E0005A0704D00F221A40042A00D004335A01B7
:1009F00027D50134FF2C00D179E001229B015B0A4D
:100A0000E4B22A405B02E405580AD20720431043AF
:100A10001CBC90469946A246F0BDFF2CE0D0802138
:100A2000C9040E431B2A7BDC31002020D140821AEE
:100A30009640721E96410E439B1B5A01BAD45A0728
:100A4000D0D10122DF082A40FF2C33D1002F00D162
:100A5000A8E08023DB033B435B025B0AFF24D1E772
:100A6000211A00294CDD00282AD0FF2CB8D0802084
:100A7000C00406431B2900DDAFE030002027C8403A
:100A8000791A8E40711E8E4106439B195901D6D5A5
:100A90000134FF2C00D185E001227A491A405B081D
:100AA0000B4013439CE7002E00D070E76BE73B1E22
:100AB000C5D100227B025B0AE4B2A3E714008FE7F2
:100AC000002E4DD0481E002857D19B1901245A01F1
:100AD000B5D50224E0E7002A25D1621CD2B2012A52
:100AE00072DD9F1B7A0135D5F71A0D0064E70122EC
:100AF00000232A4086E73B00634A241A13406FE72D
:100B000000296CD1611CC8B201284EDDFF2949D0F3
:100B10009B195B080C0063E7FF2A41D00A0081E7BC
:100B200001269B1B89E7002C1CD0FF2821D08024A4
:100B3000E404524223431B2A00DD96E01C002025DA
:100B4000D440AA1A93405A1E93412343F31A040037
:100B50000D002DE7002F00D02EE700220024A9E78A
:100B60000C003DE7002B58D0D243002AEED0FF28DE
:100B7000E1D13300FF240D0032E7FF2910D001003E
:100B800078E7002B6ED0FF24002E00D128E78022CA
:100B90005146D203114203D06146114200D13300C5
:100BA000FF241DE7FF2400232CE7002CE9D1002BB4
:100BB00063D0002E00D113E79B195A0100D43EE701
:100BC000314A0C0013400BE7002C1ED1002B2FD113
:100BD000002E4FD033000D0002E7012655E7002C10
:100BE0001FD1002B43D0C94300290BD0FF2839D097
:100BF0001B2944DC1C002027CC40791A8B40591E4D
:100C00008B4123439B19040040E7002B1AD1002E8F
:100C100024D180270022FF031BE7330004000D00CE
:100C2000DEE6FF281ED08024E40449422343DFE7A8
:100C3000002E00D1D4E69F1B7A0100D437E7F31AC7
:100C40000D00CDE6FF24002E00D1C9E680225046DB
:100C5000D2031042A4D060461042A1D133000D004F
:100C6000FF24BDE63300FF24BAE601236EE733001C
:100C70000400B5E6002700221CE73300B0E601239C
:100C8000C0E7C046FFFFFF7DFFFFFFFB41024300BF
:100C9000C20F490A1B0E00207E2B0DDD9D2B0CDCA4
:100CA000802000040143952B0ADC9620C31AD9400A
:100CB0004842002A00D108007047034BD018FBE7D8
:100CC000963B9940F4E7C046FFFFFF7F70B50028D0
:100CD00030D0C317C4185C40C50F200000F098F94D
:100CE0009E231B1A962B0DDC9622D21A94402A00C2
:100CF0006402640ADBB26402DB05600AD2071843AF
:100D0000104370BD992B19DC9922D21A002A29DDD3
:100D100094402200144C1440510704D00F210A4083
:100D2000042A00D00434620113D4A401640ADBB2A3
:100D30002A00E0E7002200230024DCE7052221004E
:100D4000121AD140B922D21A9440621E94410C4327
:100D5000DAE7054B2A001C409F23A4011B1A640AF2
:100D6000DBB2C8E72200D5E7FFFFFFFBF0B54F4637
:100D70004646D6465C00C0B51F03DB0F9A46174BAC
:100D80000E034D0084468046360B6D0DC90F91460B
:100D90003F0B640D01209D4208D09C4201D0A5422A
:100DA0000BD01CBC90469946A246F0BD6346334327
:100DB000F7D1AC42F5D13A43F3D10120BE42F0D194
:100DC000C845EED1514507D0002DEAD163461E43F8
:100DD0003000461EB041E4E70020E2E7FF070000D4
:100DE000F0B54546DE4657464E46E0B51F033D0B7F
:100DF0002C4F0E034C00AB465D008446360B640D51
:100E0000C90F90466D0DDB0FBC422AD0254FBD4265
:100E10002DD0002C0FD13043070081467842784115
:100E2000C0B2002D17D15F463A4314D14B46002083
:100E3000002B0AD006E0002D02D15846024301D013
:100E4000994218D04842012108433CBC904699463B
:100E5000A246AB46F0BD0028F2D00120013B18436A
:100E6000F3E737000743D1D002204042EDE75F4669
:100E70001743CED0F8E7AC42E4DC03DA481E012188
:100E80000843E2E75E45DDD806D000205E45DCD2AF
:100E90000123481E1843D8E7C445D3D80020C445D1
:100EA000F6D3D2E7FF070000F0B54E464546DE46D2
:100EB00057465C00E0B51F03DB0F99462A4B0E0333
:100EC0004D00C90F8446360B6D0D8B4690463F0B87
:100ED000640D9D4220D0244B9C4222D0002D12D183
:100EE000304343424341DBB2002C1FD0002B0CD0D7
:100EF0004B460120013B034318003CBC90469946F9
:100F0000A246AB46F0BD002C16D0CB4517D05B46B1
:100F1000594201230B43EFE7310002230143EBD198
:100F2000D9E7390002231143E6D1D7E73A43DDD1AF
:100F300000230028E0D0EAE73A43E6D1E7E7A542FC
:100F4000E5DC05DBBE42E2D807D00023BE42D3D2A7
:100F50005946012301390B43CEE7C445D7D80023B6
:100F6000C445F5D3C8E7C046FF0700004100090E9D
:100F70004B1C70B5DBB24602750AC40F012B14DDA1
:100F8000E0239B006D07360BCB1800210A0D2800CB
:100F900012051C4D32435B052A405B0813435B007E
:100FA000E4075B082343190070BD002914D1002D0C
:100FB0001ED0280000F02CF80A281CDC0B232A0085
:100FC0001B1ADA40030015339D400F4B12031B1A06
:100FD0005B05160B5B0DD8E7002D06D0320B802683
:100FE00036036D071643094BCFE7084B0026CCE7C5
:100FF00000230026C9E703002A000B3B9A40002586
:10100000E3E7C046FFFF0F8089030000FF070000F1
:101010001C2101231B04984201D3000C10391B0A28
:10102000984201D3000A08391B09984201D30009EC
:10103000043902A2105C40187047C0460403020243
:1010400001010101000000000000000010B50400D3
:1010500000F0ACFFFA218900FFF760F800F0FEF91C
:10106000012000222100404200F0C8F9002010BDFC
:101070001023064A10B5116800200B431360FFF7D8
:10108000E5FF01F051FD002010BDC04600200240E8
:10109000024A1368013313607047C04624000020E1
:1010A000014B18687047C0462400002037B50190F6
:1010B000FFF7F6FF019C0500631C5A1E9341E418DC
:1010C000FFF7EEFF401BA042FAD337BD002373B5F4
:1010D00003210193036804009A680A40012A07D19A
:1010E0001968114201D0002076BDDA681204FAD4E2
:1010F0009968194A114208D010230120626C1343E9
:101100006364A36C0343A364EEE7012299680A4376
:101110009A60124B12491868FFF700F80190019B82
:10112000002B15D1FFF7BCFF0125060023681B68C3
:101130002B42D8D1FFF7B4FF801B0228F6D9102329
:10114000626C012013436364A36C2B43A364CBE75D
:10115000019B013B0193E2E71700008000000020A3
:1011600040420F00F8B504000120002C72D0636CDF
:10117000002B06D122004032A3642000137001F03E
:10118000FBFC636CDB0600D579E0042223689868D9
:10119000104000D073E0626C4249114002220A43C1
:1011A000032162649A680A40012A00D06DE0196840
:1011B000114202D1DA68120467D5DA683A49256A21
:1011C0000A40DA60A2696F039103E269D203114316
:1011D000626B013A561EB2411603E268114322695E
:1011E0000F43022A00D10420226B616A52003A4365
:1011F00032430243012904D1002D2CD18021490220
:101200000A43C220A16AFF30814202D0E06A014352
:101210000A438020D96840051143D960A16B8142FF
:1012200002D0481E062807D8072558692940A84338
:101230005861586901435961DB681C490B409A4267
:1012400011D100200322A064636C93431A00012390
:1012500013436364F8BD2020656C28436064A06C70
:101260000143A164CDE71222636C012093431A006D
:10127000102313436364A36C0343A364EAE71023BE
:10128000626C012013436364E4E71821DA688A433F
:10129000A1680A43DA601969626889008908114304
:1012A00019618AE7FDFEFFFF1902FEFFE7FF3F839A
:1012B000036870B59B68040002205B071AD4250000
:1012C00040352B78012B15D001232B70E369012BBE
:1012D00011D1636C0B4A00201A4080235B0013433A
:1012E0001C2263642368A06428701A609968183A05
:1012F0000A439A6070BD2000FFF7E8FE0028F9D18C
:10130000E7E7C046FEF0FFFF0368186C7047000077
:10131000F7B5002304000193403423780500022030
:10132000012B2BD001232A68AE6B906823704007F5
:1013300052D42C484F680D6887423BD0AB40180010
:101340008023976A5B05384390629E420FD0013E2E
:10135000062E0CD98B68072150690840834206D0BD
:1013600050690B40884350615069034353612B001F
:10137000103B012B03D9002000232370FEBD1A4B24
:1013800080221968102D13D0D2030A431A60102D41
:10139000F1D1164B16491868FEF7C0FE0A235843D0
:1013A0000190019B002BE6D0019B013B0193F8E7E4
:1013B0001204EAE7AB40916A99432B00103B91621B
:1013C000012BD8D8084B1A68102D03D009490A40C0
:1013D0001A60D0E70849FAE72022696C18000A432E
:1013E0006A64C9E7011000000827014000000020DE
:1013F00040420F00FFFFBFFFFFFF7FFF70B5890175
:10140000002814DA0F23C0B20340083B114A9B089E
:101410009B009B18032210409040FC3215001140A5
:1014200085408140DC69AC432143D96170BD03250F
:1014300083082840A840FC352E00074A9B009B18D3
:10144000C02286402940814092009C58B4432143E9
:101450009950EBE700ED00E000E100E0094A431E8F
:10146000012093420DD8C021074A08485360036AFF
:1014700009061B021B0A0B4303620020072390602E
:1014800013607047FFFFFF0010E000E000ED00E098
:10149000054B1A68042802D11043186070470421D4
:1014A0008A431A60FAE7C04610E000E010B501F088
:1014B00033FB10BDF0B50B6887B002930023019198
:1014C000029ADA4001D107B0F0BD01229A4003929E
:1014D0000399029A0A40009200D18CE0019A1021EF
:1014E000526816008E43022E0ED107251D40AD0016
:1014F0000139A940DC08A4000419276A8F43019927
:101500000969A9400F43276203245F00BC40E443FC
:101510000568013E2540AC4603251540BD406146A7
:101520000D430560012E0FD801998668CD682640CD
:10153000BD40354385604668039915098E430121F6
:101540000D409D4035434560C56801992C408D682C
:101550008021BD4049052C43C4600A424BD0012183
:10156000264C0326A5691E400D43A561A4699D086C
:101570000C400594059C0F242149AD00B6006D1860
:10158000B4409021AF68C905A743002488420CD01D
:101590001C490134884208D01B490134884204D0D8
:1015A0001A490334884200D1023CB44000993C43BC
:1015B0000E00AC60164CCD4327683E43D10301D4E6
:1015C0003E002E4026606768009E3E43910301D492
:1015D0003E002E406660A768009E3E43D10201D4C3
:1015E0003E002E40A660E668009F3743920201D479
:1015F0002E403700E760013362E7C046001002402A
:10160000000001400004004800080048000C0048A9
:101610000004014000690840411E8841C0B2704783
:10162000002A01D0816170478162FCE703689A69F2
:10163000920701D500229A6201229969114202D1D2
:1016400099690A439A61704730B50468064865682D
:1016500089052840039D890D2B43194312040A4331
:101660000243626030BDC046009800FCF8B504003B
:101670000E0017001D002268936933409B1B5942DE
:101680004B41BB4201D000200EE06B1CF4D0002D7A
:101690000BD12300202241331A70220000230320A3
:1016A0004232403413702370F8BDFFF7F9FC069BFB
:1016B000C01A8542DFD2ECE7F8B5036804009869E8
:1016C00010230E00170018402025002815D1F8BD62
:1016D000721C13D0002E0BD12300202241331A702C
:1016E0002200002342324034137003202370EEE7BF
:1016F000FFF7D6FCC01B8642EED323689A692A42C4
:10170000E6D010222000DA61DD61FFF78FFF22684A
:101710000849536801200B4053600423636423008D
:10172000220041331D700023423240341370237075
:10173000CDE7C04600E800FEF8B504000D00160035
:10174000022723689B693B4201D0002018E0320049
:1017500029002000FFF7B0FF002818D16B1CF0D043
:10176000002D0ED12022636C0320134363642300F9
:1017700041331A7022000023423240341370237028
:10178000F8BDFFF78DFC801B8542DAD2EAE7012025
:10179000F6E7F8B504000D001600202723689B69C2
:1017A0003B4201D0002016E0320029002000FFF764
:1017B00083FF002816D1002D0ED12022636C032058
:1017C00013436364230041331A7022000023423222
:1017D000403413702370F8BDFFF762FC801B854214
:1017E000DCD2EAE70120F6E770B504000120002C06
:1017F0003FD0250041352B78DBB2002B05D12200EC
:1018000040321370200001F0D7F9242301212B70FE
:101810002368E0681A68A6688A431A6061681A4AF1
:101820000A401A619968194A11409960012821D12A
:101830008021090231439960586815490143596074
:10184000D96800200A40DA60616922690A43A16907
:1018500009020A43DA60216AE2690A431A60012236
:1018600019680A431A60202360642B702063423495
:10187000207070BD84210902314399600228DBD1B8
:10188000802109015960D7E7FFFFFFF0FF7FFFFFCD
:1018900000800002F0B5050087B003910492059323
:1018A00041352B7804000220202B57D123004033F0
:1018B0001A78012A52D001261E70FFF7F1FB802111
:1018C000070000901923320009022000FFF7CEFE26
:1018D000002842D121232B70113BAD192B70049BA2
:1018E000606463626B469B8A606363858023628D5C
:1018F0009B01FF2A21D9FF222285009380235B04CC
:1019000003992000FFF7A0FEFF26638D3A000C9993
:101910002000002B19D1FFF73CFF002819D120210E
:101920002368274ED9615A6832405A6023004034F8
:10193000413319702870207010E0628D92B22285B8
:1019400000938023D2B29B04DAE7FFF7F5FE00286C
:1019500006D0636C0120042B00D0032007B0F0BD3B
:10196000636A2268591C61621B789362638D228DC1
:10197000013B013A9BB292B263852285002AC4D111
:10198000638D002BC1D000970C9B80212000FFF7B6
:101990006DFE0028E1D1638DFF2B09D98023FF2242
:1019A00026855B04009003992000FFF74DFEACE70D
:1019B0008023628D9B0492B22285D2B20090F2E71E
:1019C00000E800FEF0B50400413422780300D2B2F2
:1019D0000220202A18D11D0040352E78012E13D068
:1019E0001B68223020701E68233886431E601E68E4
:1019F000064F3E401E601E68314319601968084357
:101A00001860002022702870F0BDC046FFEFFFFF75
:101A1000F0B5050041352A780300D2B20220202A11
:101A200017D11C0040342678012E12D01B682230BA
:101A300028701E68233886431E601E68054F090201
:101A40003E403143196019680843186000202A702D
:101A50002070F0BDFFF0FFFFF0B5036885B0050012
:101A6000DB072FD42B689B0700D581E02B681B0771
:101A700000D5BCE02B685B0700D5DFE02B68DB06F8
:101A80001AD56A69B54C0423012A00D04BE1616B79
:101A900002260B436363636B1A436263FFF700FB29
:101AA0000700636B334200D136E1F821626BAB690A
:101AB0008A43DB0013436363296A002900D059E19C
:101AC000002013E00C21A54C62680A40042A06D0CD
:101AD00063680B40082B0BD16368DB0308D52368D0
:101AE0009B03BFD56B68002BBCD1012005B0F0BDB6
:101AF0006B68012B13D1802322685B0213432360A0
:101B0000FFF7CEFA80260700B60223683342A9D138
:101B1000FFF7C6FAC01B6428F7D90320E6E7002BBD
:101B200016D123688E4A80261340236023688D4A8D
:101B3000B60213402360FFF7B3FA0700236833426D
:101B400000D18FE7FFF7ACFAC01B6428F6D9E4E7B1
:101B5000052B05D180232268DB0213432360CAE7EB
:101B600023687F4A1340236023687E4A1340C6E7F8
:101B70000C227A4C6368134206D063681340082B2A
:101B800010D16368DB030DD423689B0702D5EB6893
:101B9000012BAAD1F82122682B698A43DB00134369
:101BA000236063E7EA680123002A0FD02268022637
:101BB00013432360FFF774FA070023683342E9D127
:101BC000FFF76EFAC01B0228F7D9A6E722680226A3
:101BD0009A432260FFF764FA07002368334200D17A
:101BE00044E7FFF75DFAC01B0228F6D995E7EA69DA
:101BF00001235A4C002A10D0626A02261343636202
:101C0000FFF74EFA0700636A334200D032E7FFF76E
:101C100047FAC01B0228F6D97FE7626A02269A4378
:101C20006262FFF73DFA0700636A334200D121E7A1
:101C3000FFF736FAC01B0228F6D96EE78022002192
:101C4000464C5205E3690091134208D1E3691343FE
:101C5000E361E36913400393039B0123009380270F
:101C6000414E7F0033683B4206D0AB68012B13D155
:101C7000226A1343236230E033683B433360FFF74B
:101C80000FFA019033683B42EFD1FFF709FA019B4D
:101C9000C01A6428F6D940E70122002B14D1236A28
:101CA000022793432362236A033293432362FFF79D
:101CB000F7F90600236A3B4225D0FFF7F1F92B4BD9
:101CC000801B9842F6D928E7052B0BD1216A013BEE
:101CD0000B432362236A1A432262FFF7E1F90227CA
:101CE00006000DE0236A934304222362236A934390
:101CF000C0E7FFF7D5F91D4B801B984200D90CE7D0
:101D0000236A3B42F5D0009B012B00D0B6E6E36985
:101D1000174A1340E361B1E6FFF7C2F9C01B02287E
:101D200000D8BEE6F9E6053203D1626B9A436263DE
:101D3000BBE6626B0226134301226363636B93432A
:101D40006363FFF7ADF90700636B334200D1B3E67D
:101D5000FFF7A6F9C01B0228F6D9DEE60010024004
:101D6000FFFFFEFFFFFFFBFF007000408813000035
:101D7000FFFFFFEF0C22264C012063681340082B65
:101D800000D1B3E62368234A1340236002292FD1F0
:101D9000FFF786F980260700B6042368334221D175
:101DA0000F22E36A9343EA6A1343E362696AAB6A08
:101DB00062680B43184980250A40134363608023FF
:101DC00022685B0413432360FFF76AF90600AD0441
:101DD00023682B4200D073E6FFF762F9801B0228CC
:101DE000F6D99AE6FFF75CF9C01B0228D5D994E62C
:101DF000FFF756F980250600AD0423682B4200D179
:101E00005EE6FFF74DF9801B0228F6D985E6C0464D
:101E100000100240FFFFFFFEFFFFC2FF70B5144C31
:101E200088B010222100684600F0AEFF210004AD0A
:101E300010221031280000F0A7FF0C220D4E73680D
:101E40001A40082A11D10F206A46990C0140545CAF
:101E5000F26A0240A95CDB0305D50748FEF75EF98C
:101E6000604308B070BD0548FAE70348F9E7C0468B
:101E7000B42D00080010024000127A0000093D0055
:101E8000F7B50122434C060023680F0013408B4234
:101E90001CD33268930723D4D30729D401232268A3
:101EA0001A40974267D333683B4C5B076AD4FFF70D
:101EB000B5FF6368394A1B061B0FD35CD840384B0B
:101EC00018600020FFF7C2F8002008E02368934361
:101ED0000B432360236813409942DAD00120FEBDF2
:101EE000F0202D494B688343B06803434B60D3E730
:101EF000294D72682B68012A1AD19B03EED5032164
:101F00006B688B4313436B60FFF7CAF873680190EB
:101F1000012B15D10C226B681340042BBED0FFF7A8
:101F2000BFF8019BC01A1F4B9842F3D90320D6E794
:101F3000022A02D19B01E2D4D0E79B07DFD4CDE790
:101F4000022B12D00C226B681342A7D0FFF7A8F81F
:101F5000019BC01A134B9842F4D9E7E7FFF7A0F8AA
:101F6000019BC01A0F4B9842E0D80C226B681340BB
:101F7000082BF3D192E722689A43226022681A4222
:101F8000ACD190E76368084A1340F268134363607A
:101F90008DE7C0460020024000100240CB2E000812
:101FA0000000002088130000FFF8FFFF014B1868B5
:101FB0007047C04600000020044B054A5B685B0583
:101FC0005B0FD35C034A1068D84070470010024092
:101FD000DB2E000800000020F0B5036885B0050086
:101FE000DB0328D580220021374C5205E36900919C
:101FF000134208D1E3691343E361E3691340039398
:10200000039B012300938027304E7F0033683B42BF
:1020100026D0C022236A920013402D4E32D1236A6B
:102020001E406B681E43009B2662012B03D1E369AF
:10203000284A1340E3612A68D30706D503202249C2
:102040000B6B8343A86803430B630020930617D5EB
:1020500010211D4A136B8B43E9680B4313630FE098
:1020600033683B433360FFF71BF8019033683B4212
:10207000CFD1FFF715F8019BC01A6428F6D90320C9
:1020800005B0F0BD69680A409342C8D08023226A37
:10209000206A11005B0203432362236A0E48314029
:1020A000034023622162D307B9D5FEF7F9FF070089
:1020B0000222236A1342B2D1FEF7F2FF074BC01B84
:1020C0009842F5D9DBE7C04600100240007000409E
:1020D000FFFCFFFFFFFFFFEFFFFFFEFF8813000085
:1020E00002000223012100683D32137003680B4394
:1020F0000360002011707047194A10B503689042C0
:1021000002D0184CA04208D17024A3434C6823434A
:1021100090420BD0134CA04208D0134CA04205D0E3
:10212000124CA04202D0124CA04203D1114C2340C9
:10213000CC6823438024A3434C69234303608B680A
:10214000C3620B688362904205D0084B984202D06C
:10215000074B984201D10B6903630123436110BD12
:10216000002C0140000400400020004000440140D9
:1021700000480140FFFCFFFF70B504000120002C67
:1021800014D025003D352B78DBB2002B05D1220081
:102190003C321370200000F035FD022320682B70C4
:1021A000211DFFF7A9FF012300202B7070BD000047
:1021B00030B58468034D0A431B022C40134323436C
:1021C000836030BDFF00FFFFF8B5050002233C35FA
:1021D0002A7804001800012A19D026000127206857
:1021E0003D362F70337083684F4A134083600B680D
:1021F000402B00D16FE016D8102B00D187E007D814
:10220000002B00D17DE00123002033702870F8BD41
:10221000202B00D181E0302BF5D1702283689343CD
:102220001A00372355E0702B33D01BD8502B3BD0EE
:10223000602BE8D110244B68CA68016A3B4FA14368
:102240000162846912033C402243A024016A826136
:102250007022A1431B010B430362836893431A005E
:10226000672336E08022520193420DD080229201F2
:102270009342C8D1CB684A688968FFF799FF8023E9
:102280002268DB0191680CE0072283689343836036
:10229000B9E7CB684A688968FFF78AFF7721226827
:1022A00093680B439360AEE74A68CB68016A046A9F
:1022B0001B01BC43F02704628469BC4323430A2406
:1022C000A1430A43836102627022836893431A0028
:1022D00057231343DBE74A68CB68016A046A1B0192
:1022E000BC43F02704628469BC4323430A24A1430E
:1022F0000A43836102627022836893431A00472372
:10230000E7E77022836893431A000723E1E770220E
:10231000836893431A001723DBE770228368934393
:102320001A002723D5E7C0468800FFFFFF0FFFFFF5
:1023300030B504003C34227803000220012A17D073
:102340001D001B683D3528705A686E3082435A6004
:102350005A6808684968024380205A609A68824334
:102360009A609A6800200A439A6001232B702070BB
:1023700030BD000070B504000568C269836800695B
:1023800029680343606903433548134301400B4305
:102390002B606B683349206A0B40E1680B436B602C
:1023A000A369A9680343304801400B430321AB6094
:1023B0002E4B1B6B0B402E49C85C80231B029A429C
:1023C0002CD1082827D8FDF79FFE05260B261E26B0
:1023D00026262100FFF7F0FD636840005B0802E05D
:1023E00063685808234BC0186168FDF797FE83B2F5
:1023F00000200F22190091430A001B0721685B0F80
:102400001343CB6070BDFFF709FDE5E7636858082B
:1024100080235B02E7E701200023EAE708281DD8B4
:10242000FDF772FE051C0A1C141C1C1C1700FFF78C
:10243000C3FD61684B0802E061680F4B4808C01893
:10244000FDF76CFE80B2E8600020DBE7FFF7E6FCFA
:10245000EFE7802361681B024808F0E70120D1E71D
:10246000F369FFFFFFCFFFFFFFF4FFFF0010024003
:10247000942E00080024F40000127A00436A30B55C
:10248000DA0706D50168284C4A682240846A22434C
:102490004A609A0706D50168244C4A682240C46AFB
:1024A00022434A605A0706D50168214C4A682240F7
:1024B000046B22434A601A0706D501681D4C4A681E
:1024C0002240446B22434A60DA0606D501681A4C62
:1024D0008A682240846B22438A609A0606D5016886
:1024E000164C8A682240C46B22438A605A0610D573
:1024F0000168134D4A68046C2A4022434A608022D6
:102500005203944205D14A680E4C2240446C224347
:102510004A601B0606D502680B4953680B40816C64
:102520000B43536030BDC046FFFFFDFFFFFFFEFFC2
:10253000FFFFFBFFFF7FFFFFFFEFFFFFFFDFFFFF5F
:10254000FFFFEFFFFFFF9FFFFFFFF7FF70B5041EC8
:1025500001D1012070BD050069352B78DBB2002B5D
:1025600004D102006832137000F062FB24230121C1
:1025700022682B70136820008B431360FFF7FAFE6C
:102580000128E6D0636A002B02D02000FFF776FF17
:1025900023680B495A6800200A4008215A609A684B
:1025A0008A439A60012219680A431A602200202394
:1025B000E0666A3268342B7013702070CAE7C04638
:1025C000FFF7FFFF1FB50F2304000C219C430B00F6
:1025D00003AA2343137008230001C0B21C43014324
:1025E00018435C339170D07054704E2100930248B0
:1025F000603BFFF74FF91FBD280000201FB50F23D8
:1026000004000D219C430B0003AA234313700923EC
:102610000001C0B21C43014318435B339170D0707A
:1026200054704E2100930248603BFFF733F91FBD01
:102630002800002010B50220FFF7C4FF2820FFF774
:10264000C1FF0F20FFF7BEFF8020FFF7BBFF10BDCB
:1026500010B504002078002800D110BD0134FFF728
:10266000CDFFF7E7030010B501391A1A914200DCDB
:1026700010BD1A78445C1C70425401330139F4E7F0
:10268000F7B506000D000F0001927C1B002E0BD148
:102690003023019A944214DB28002100FFF7E2FF67
:1026A000002320002B55FEBD30000A21FDF7A6FEB9
:1026B0003031397030000A21FDF7BAFD01370600CC
:1026C000E3E72B550134E4E770B50C00051CFEF779
:1026D000DDFA0600FEF7FAFA011C281CFEF73AF9AB
:1026E0000022051C21003000FFF7CAFF2E232354CF
:1026F000013024180549281CFEF70CF8FEF7C6FA2D
:1027000002222100FFF7BCFF70BDC0460000C84296
:10271000122310B594B00893113B0B930D930F3314
:102720000C930E93002308A81093FFF795F9011E50
:1027300000D0FEE7072301900290039068460093C3
:10274000FFF79EFB002800D0FEE7212306900790AC
:1027500004A80493FFF740FC041E00D0FEE7FFF737
:1027600025FCFA218900FDF7D9FCFEF777FE04204D
:10277000FEF78EFE0120220021004042FEF73EFEC1
:1027800014B010BDF0B58BB0FEF772FCFFF7C0FFC0
:102790008020C64A80025169002701435161536974
:1027A00010210340902000220293C005029BFEF7F7
:1027B00037FF90201023012505AC2100C0050593AB
:1027C0006560A760E760FEF775FEE0239020059343
:1027D000C005DE3B2100A3606760FEF76BFEB44ED0
:1027E000B44B3000336004237361C223FF3377603E
:1027F000B760F7603561B761F76137627762B362DE
:10280000F76237637563FEF7ADFCB84200D0FEE7B0
:102810008027802305907F015B05210030006760E1
:10282000A360FEF775FD002800D0FEE7A24EA34B83
:10283000B0603360A24B30617061B061F0613062B2
:1028400030007360F560FEF7CFFF011E00D0FEE799
:102850003000FFF7B7F8011E00D0FEE73000FFF7A9
:10286000D7F8002800D0FEE7964B974A98601A6088
:10287000962212025A600C22D86018619861D861C1
:102880001862586218005A61FFF760FE002800D0F5
:10289000FEE78E4E8E4B7060B060F060306170610C
:1028A000B06130003360FFF767FC002800D0FEE71E
:1028B000210030002760FFF787FC002800D0FEE7EA
:1028C0000390049003A93000FFF732FD002800D0E8
:1028D000FEE7FFF7AFFE2800FFF774FE3220FEF799
:1028E000E5FB7C48FFF7B4FEC020FFF76BFE9025A8
:1028F0007948FFF7ADFEED0580212800FEF78AFE3E
:10290000012800D1BEE040212800FEF783FE012807
:10291000F2D105009027FF0580213800FEF77AFEEE
:102920000128F9D03000FFF727FC3000FFF7D8FB73
:102930008027002DFDD10120FFF744FE3220FEF755
:10294000B5FB3800FFF73EFE6448FFF781FE90209C
:102950003900C005FEF75EFE0128F8D1902039004D
:10296000C005FEF757FE0128F8D00120FFF72AFE28
:102970003220FEF79BFB3800FFF724FE5848FFF794
:1029800067FE902001221021C005FEF749FE484D48
:102990002800FEF78DFC2800FEF7B6FC514B98424C
:1029A000F6D9902000221021C005FEF739FE28003C
:1029B000FEF77EFC4C4E336800932800FEF7A4FC23
:1029C0004A4B984260D8009B3068C01AFEF77EF9E7
:1029D0004749FDF757FD4749FDF754FD061CFEF733
:1029E000C5FA454A454B00900191FDF72DFD0028A1
:1029F0000CD000980199424A424BFDF739FD00285E
:102A000004D0301C4049FDF785FE061C301CFEF743
:102A1000ADFA3E4A3E4B00900191FDF715FD0028AE
:102A200036D000980199344A344BFDF717FD002841
:102A30002ED0301C3749FDF76DFE0125061C210004
:102A4000301CFFF741FE0120FFF7BCFD3220FEF7EE
:102A50002DFB3800FFF7B6FD0023002D1DD1635D6F
:102A6000002B17D12033635565194E336B7020004E
:102A7000FFF7EEFD90203900C005FEF7CBFD0128E1
:102A8000F8D158E7002545E72800FEF711FC94E748
:102A90000500D4E70135E2E70133E25C002AFBD10F
:102AA0002032E254E31855325A70E0E70010024039
:102AB0002401002000240140280000200054004090
:102AC0000E0900207400002000380140E4000020BE
:102AD000002C0140982E0008A92E0008B02E0008F6
:102AE000BE2E0008B1090000200000209103000064
:102AF00000007A4400A877488DEDB5A0F7C6B03E37
:102B000095D626E80B2E113E286B6E4EFCA9F1D20D
:102B10004D62503F00247449024A13680133136028
:102B20007047C0462000002007B50120114B99696D
:102B30000143996180219A69490502400092009AF7
:102B4000DA6906380A43DA610022DB690B40019337
:102B50001100019BFEF752FC0022022011004042AE
:102B6000FEF74CFC0022012011004042FEF746FC1B
:102B700007BDC046001002407FB50D4B02689A4267
:102B800014D180200B4A80009169014391619369BF
:102B900001A903400093009B01239020019302337D
:102BA00002930023C0050393FEF784FC07B000BD29
:102BB00000240140001002407FB5104B02689A4289
:102BC00019D1C023DB000193122390200293113B03
:102BD00003930233049301A90133C0050593FEF763
:102BE00069FC8020064A8003D1690143D161D36921
:102BF00003400093009B07B000BDC0460054004056
:102C000000100240084B026882B09A4209D180202D
:102C1000064A000191690143916193690340019360
:102C2000019B02B07047C046002C014000100240DA
:102C30007FB50F4B02689A4218D180200D4AC0011F
:102C4000916901439161936901A903400093009B3D
:102C50000C2301930A3B0293002390200393033338
:102C60000493C005023B0593FEF724FC07B000BDAA
:102C700000380140001002407047FEE7704770477F
:102C800010B5FEF705FAFEF711FC10BD0121114B3E
:102C900011481A680A431A605A6802405A601A6852
:102CA0000E4802401A601A680D4802401A605A68BD
:102CB0000C4802400F205A60DA6A8243DA621A6BCB
:102CC000094802401A635A6B8A435A6300229A6089
:102CD0007047C046001002400CB8FF08FFFFF6FE28
:102CE000FFFFFBFFFFFFC0FFECFEFFFF0D48854627
:102CF0000D480E490E4A002302E0D458C450043354
:102D0000C4188C42F9D30B4A0B4C002301E013602A
:102D10000432A242FBD3FFF7B9FF00F011F8FFF72E
:102D200031FDFEE70010002000000020040000201C
:102D3000EC2E00080400002070010020FEE70000D7
:102D400070B500260C4D0D4C641BA410A64209D191
:102D5000002600F023F80A4D0A4C641BA410A6427A
:102D600005D170BDB300EB5898470136EEE7B300CC
:102D7000EB5898470136F2E7E42E0008E42E0008ED
:102D8000E42E0008E82E0008002310B59A4200D176
:102D900010BDCC5CC4540133F8E70000F8B5C04660
:102DA000F8BC08BC9E467047F8B5C046F8BC08BCE5
:042DB0009E46704784
:102DB40002030405060708090A0B0C0D0E0F101078
:102DC4000102030405060708090A0B0C0D0E0F1077
:102DD40010060008E0050008F205000834050008A4
:102DE400F2050008D6050008F205000834050008BD
:102DF400E0050008E0050008D605000834050008D1
:102E04003C0500083C0500083C050008F8050008DE
:102E1400E0050008E0050008B4050008980600086D
:102E2400B4050008D6050008B40500089806000893
:102E3400E0050008E0050008D6050008980600082B
:102E44003C0500083C0500083C050008A2060008F3
:102E54004008000890070008900700088E07000843
:102E64003208000832080008280800088E07000805
:102E74003208000828080008320800088E070008F5
:102E8400380800083808000838080008C80800088E
:102E94000004080253656C6563696F6E65206F20DA
:102EA4006D6F646F0043206F75204C00496E736929
:102EB4007261206F206361702E004D6564696E64D9
:102EC4006F20432E2E2E00000000000000000001A1
:102ED40002030406070809000000000102030400BD
:042EE400E9000008F9
:042EE800C10000081D
:042EEC0000127A0056
:0400000508002CEDD6
:00000001FF
